{
  "_format": "hh-sol-artifact-1",
  "contractName": "gasChallenge",
  "sourceName": "contracts/gasChallenge.sol",
  "abi": [
    {
      "inputs": [],
      "name": "getSumOfArray",
      "outputs": [
        {
          "internalType": "uint256",
          "name": "",
          "type": "uint256"
        }
      ],
      "stateMutability": "view",
      "type": "function"
    },
    {
      "inputs": [],
      "name": "notOptimizedFunction",
      "outputs": [],
      "stateMutability": "nonpayable",
      "type": "function"
    },
    {
      "inputs": [],
      "name": "optimizedFunction",
      "outputs": [],
      "stateMutability": "nonpayable",
      "type": "function"
    }
  ],
  "bytecode": "0x6080604052604051806101400160405280600160ff168152602001600260ff168152602001600360ff168152602001600460ff168152602001600560ff168152602001600660ff168152602001600760ff168152602001600860ff168152602001600960ff168152602001600a60ff16815250600090600a610082929190610095565b5034801561008f57600080fd5b506100f7565b82600a81019282156100c9579160200282015b828111156100c8578251829060ff169055916020019190600101906100a8565b5b5090506100d691906100da565b5090565b5b808211156100f35760008160009055506001016100db565b5090565b610314806101066000396000f3fe608060405234801561001057600080fd5b50600436106100415760003560e01c806368b5f223146100465780637ce418941461005057806380d2c8031461005a575b600080fd5b61004e610078565b005b6100586100b4565b005b61006261017f565b60405161006f91906101e9565b60405180910390f35b60005b600a8110156100b15760008082600a811061009957610098610204565b5b018190555080806100a990610262565b91505061007b565b50565b600080600a806020026040519081016040528092919082600a80156100ee576020028201915b8154815260200190600101908083116100da575b5050505050905060005b600a81101561012c5760008282600a811061011657610115610204565b5b60200201818152505080806001019150506100f8565b5060005b600a81101561017b578181600a811061014c5761014b610204565b5b6020020151600082600a811061016557610164610204565b5b01819055508061017490610262565b9050610130565b5050565b6000806000905060005b600a8110156101c857600081600a81106101a6576101a5610204565b5b0154826101b391906102aa565b915080806101c090610262565b915050610189565b508091505090565b6000819050919050565b6101e3816101d0565b82525050565b60006020820190506101fe60008301846101da565b92915050565b7f4e487b7100000000000000000000000000000000000000000000000000000000600052603260045260246000fd5b7f4e487b7100000000000000000000000000000000000000000000000000000000600052601160045260246000fd5b600061026d826101d0565b91507fffffffffffffffffffffffffffffffffffffffffffffffffffffffffffffffff820361029f5761029e610233565b5b600182019050919050565b60006102b5826101d0565b91506102c0836101d0565b92508282019050808211156102d8576102d7610233565b5b9291505056fea2646970667358221220a01af28e8e578800e0caf60c3c43b8d20ce2fc1dd1f50c6c6f266ce819bd90ff64736f6c63430008120033",
  "linkReferences": {},
  "deployedLinkReferences": {}
}